:100000000C9473000C949E000C949E000C949E0023
:100010000C949E000C949E000C949E000C949E00E8
:100020000C949E000C949E000C949E000C949E00D8
:100030000C949E000C949E000C949E000C949E00C8
:100040000C949E000C949E000C949E000C949E00B8
:100050000C949E000C949E000C949E000C94B9018C
:100060000C949E000C948C020C949E000C949E00A8
:100070000C949E000C949E000C949E000C949E0088
:100080000C949E000C949E000C949E000C949E0078
:100090000C94CD020C949E000C949E000C949E0037
:1000A0000C949E000C949E000C949E000C949E0058
:1000B0000C949E000C949E000C949E000C949E0048
:1000C0000C949E000C949E000C949E000C940E03C5
:1000D0000C949E000C949E000C944F030C949E0074
:1000E0000C949E00D80411241FBECFEFD1E2DEBFD6
:1000F000CDBF12E0A0E0B2E0E4EFFCE000E00BBF17
:1001000002C007900D92A031B107D9F71BBE18E0CD
:10011000A0E1B2E001C01D92A536B107E1F710E001
:10012000C6EED0E004C02297FE010E947406C43ED1
:10013000D107C9F70E94B2010C9478060C94000014
:10014000FB01DC010D900020E9F7119701900D9261
:100150000020E1F70895FB019F01E8944230C4F0CC
:100160004532B4F44A3029F497FB1EF490958195FA
:100170009F4F642F77270E945E06805D8A330CF0C4
:10018000895D8193CB010097A1F716F45DE251934D
:100190001082C9010C94CC00DC01FC01672F719125
:1001A0007723E1F7329704C07C916D93708362915D
:1001B000AE17BF07C8F30895DF93CF9300D000D0E8
:1001C000CDB7DEB78CE298E00E948904882309F459
:1001D0008AC08091FE059091FF059093FD05809364
:1001E000FC058CE298E00E949D049C019093FF0521
:1001F0008093FE058A3F910549F08B3F910569F098
:10020000883F910569F481E090E002C082E090E0CF
:10021000909311028093100266C083E090E0F8CFC3
:100220008091100290911102019709F05CC04091F9
:1002300012025091130249305105D4F48091FC050B
:100240009091FD052817390799F480910402909147
:100250000502019690930502809304020A970CF020
:1002600042C04F5F5F4F50931302409312023BC056
:100270004F5F5F4F5093130240931202809104022C
:100280009091050282309105C4F0BE016F5F7F4FEF
:100290004AE050E00E94AB00BC0184E192E00E9481
:1002A000A00084E192E060E072E00E94A00081E0A2
:1002B00090E090930502809304028091FE05909156
:1002C000FF05BE016F5F7F4F4AE050E00E94AB0028
:1002D000BC0184E192E00E94A00084E192E062E02F
:1002E00072E00E94A00080911202909113020A977E
:1002F00061F489E198E064E172E00E94E705109200
:10030000140210921302109212020F900F900F908D
:100310000F90CF91DF9108950F931F9389E198E09B
:1003200040E855E260E070E00E9490030CE218E0C3
:10033000C80140E855E260E070E00E94900368EE7A
:1003400073E080E090E00E940102C8016DE40E9429
:10035000DF0568EE73E080E090E00E9401021F91EB
:100360000F9108950E942B020E948C010E94DC00D4
:10037000FDCF1F920F920FB60F9211242F933F9330
:100380008F939F93AF93BF9380910406909105063E
:10039000A0910606B0910706309108060196A11DAE
:1003A000B11D232F2D5F2D3720F02D570196A11D54
:1003B000B11D209308068093040690930506A09330
:1003C0000606B09307068091000690910106A09161
:1003D0000206B09103060196A11DB11D809300068F
:1003E00090930106A0930206B0930306BF91AF91CC
:1003F0009F918F913F912F910F900FBE0F901F9063
:100400001895EF92FF920F931F937B018C018FB78A
:10041000F89440910406509105066091060670918B
:1004200007068FBF2FB7F8948091040690910506B8
:10043000A0910606B09107062FBF841B950BA60B53
:10044000B70BE816F9060A071B0760F71F910F9113
:10045000FF90EF900895789484B5826084BD84B550
:10046000816084BD85B5826085BD85B5816085BDAF
:10047000EEE6F0E0808181608083E1E8F0E0808159
:1004800082608083808181608083E0E8F0E0808109
:1004900081608083E1EBF0E0808184608083E0EB29
:1004A000F0E0808181608083E1E9F0E0808182601A
:1004B0008083808181608083E1EAF0E080818260D6
:1004C0008083808181608083E1E2F1E080818260CD
:1004D0008083808181608083E0E9F0E080818160B9
:1004E0008083E0EAF0E0808181608083E0E2F1E0F7
:1004F000808181608083EAE7F0E08081846080838E
:100500008081826080838081816080838081806837
:1005100080831092C10008951F920F920FB60F9220
:100520000BB60F9211242F933F934F935F936F93CA
:100530007F938F939F93AF93BF93EF93FF934091DC
:10054000C600E0918906F0918A06CF01019660E825
:1005500070E00E940E069C0180918B0690918C06A3
:100560002817390739F0E75FF94F408330938A063F
:1005700020938906FF91EF91BF91AF919F918F9149
:100580007F916F915F914F913F912F910F900BBE93
:100590000F900FBE0F901F9018951F920F920FB6DD
:1005A0000F920BB60F9211242F933F934F935F93AB
:1005B0006F937F938F939F93AF93BF93EF93FF932B
:1005C0004091CE00E0910D07F0910E07CF0101960A
:1005D00060E870E00E940E069C0180910F079091E8
:1005E00010072817390739F0E357F94F4083309344
:1005F0000E0720930D07FF91EF91BF91AF919F914F
:100600008F917F916F915F914F913F912F910F90BB
:100610000BBE0F900FBE0F901F9018951F920F9258
:100620000FB60F920BB60F9211242F933F934F9357
:100630005F936F937F938F939F93AF93BF93EF934A
:10064000FF934091D600E0919107F0919207CF017E
:10065000019660E870E00E940E069C01809193076D
:10066000909194072817390739F0EF5EF84F4083CF
:100670003093920720939107FF91EF91BF91AF9133
:100680009F918F917F916F915F914F913F912F91AA
:100690000F900BBE0F900FBE0F901F9018951F92DA
:1006A0000F920FB60F920BB60F9211242F933F9318
:1006B0004F935F936F937F938F939F93AF93BF936A
:1006C000EF93FF9340913601E0911508F0911608E1
:1006D000CF01019660E870E00E940E069C018091B7
:1006E0001708909118082817390739F0EB56F84F7A
:1006F00040833093160820931508FF91EF91BF9126
:10070000AF919F918F917F916F915F914F913F91A9
:100710002F910F900BBE0F900FBE0F901F9018954A
:100720005F926F927F928F929F92AF92BF92CF9281
:10073000DF92EF92FF920F931F93CF93DF93EC0121
:100740003A014B01413482E458078FE0680780E0AA
:1007500078070CF07FC060E874E88EE190E0A401B7
:1007600093010E9443062150304040405040CA014E
:10077000B90122E030E040E050E00E944306590118
:100780006A01A6019501209530954095509594E019
:10079000220F331F441F551F9A95D1F760E074E272
:1007A00084EF90E00E944306CA01B9012FEF30E0C8
:1007B00040E050E00E94EF05A40193010E9443062F
:1007C000C90181509F4F181619061CF4522E5A94D5
:1007D00003C055245394521A60E079E08DE390E011
:1007E000A40193010E9443062150304040405040F4
:1007F000CA01B90122E030E040E050E00E94430627
:10080000209530954095509583E0220F331F441F6B
:10081000551F8A95D1F760E074E284EF90E00E9462
:100820004306CA01B9012FEF30E040E050E00E94DA
:10083000EF05A40193010E944306C90181509F4F17
:10084000181619061CF4822F815002C081E0821B09
:10085000851500F5E885F98581E090E00A8802C0F9
:10086000880F991F0A94E2F7808360E079E08DE3B6
:1008700090E0A40193010E94430621503040404083
:100880005040CA01B90122E030E040E050E00E944F
:10089000430604C0E885F98510829501EC81FD814D
:1008A0003083EE81FF812083EA85FB85208141E052
:1008B00050E0CA010E8402C0880F991F0A94E2F723
:1008C000282B2083EA85FB852081CA010F8402C082
:1008D000880F991F0A94E2F7282B2083EA85FB856D
:1008E0008081088802C0440F551F0A94E2F7842BC8
:1008F0008083DF91CF911F910F91FF90EF90DF9058
:10090000CF90BF90AF909F908F907F906F905F90AF
:100910000895DC011296ED91FC911397E058FF4F7A
:100920008191919180589F4F20813181821B930B3F
:1009300060E870E00E940E060895CF93DF93DC011B
:100940001296ED91FC911397EF01CE57DF4F48813E
:100950005981E058FF4F80819181E058F040841721
:10096000950719F42FEF3FEF0CC0E40FF51F20811E
:10097000CA01019660E870E00E940E0699838883A0
:1009800030E0C901DF91CF910895FC01A085B185C8
:1009900021898C9190E0022E02C0959587950A944A
:1009A000E2F780FFF6CF0484F585E02D608308959B
:1009B0002AE032E030931A082093190889E096E083
:1009C00090931C0880931B0885EC90E090931E0880
:1009D00080931D0884EC90E09093200880931F087A
:1009E00080EC90E0909322088093210881EC90E0C5
:1009F000909324088093230886EC90E09093260837
:100A000080932508E4E0E093270873E070932808BA
:100A100067E06093290855E050932A0841E040932D
:100A20002B0830932D0820932C088DE896E09093A6
:100A30002F0880932E088DEC90E0909331088093DE
:100A400030088CEC90E0909333088093320888EC67
:100A500090E0909335088093340889EC90E090936F
:100A60003708809336088EEC90E090933908809395
:100A70003808E0933A0870933B0860933C08509321
:100A80003D0840933E083093400820933F0881E1A1
:100A900097E0909342088093410885ED90E0909311
:100AA00044088093430884ED90E090934608809337
:100AB000450880ED90E0909348088093470881EDC9
:100AC00090E090934A088093490886ED90E09093D7
:100AD0004C0880934B08E0934D0870934E08609348
:100AE0004F08509350084093510830935308209377
:100AF000520885E997E0909355088093540885E360
:100B000091E0909357088093560884E391E0909386
:100B100059088093580880E391E090935B08809394
:100B20005A0881E391E090935D0880935C0886E326
:100B300091E090935F0880935E08E0936008709363
:100B400061086093620850936308409364080895B5
:100B50000F931F93CF93DF938C01EB0109C0219674
:100B6000D801ED91FC910190F081E02DC80109952B
:100B700068816623A1F7DF91CF911F910F910895AE
:100B8000EF92FF920F931F93CF93DF938C017B0122
:100B9000EA010CC0D7016D917D01D801ED91FC9166
:100BA0000190F081E02DC80109952197209791F7D8
:100BB000DF91CF911F910F91FF90EF900895DC018D
:100BC000ED91FC910190F081E02D09950895DC01F3
:100BD000ED91FC910280F381E02D09950895629FCB
:100BE000D001739FF001829FE00DF11D649FE00D25
:100BF000F11D929FF00D839FF00D749FF00D659F86
:100C0000F00D9927729FB00DE11DF91F639FB00D84
:100C1000E11DF91FBD01CF011124089597FB092E95
:100C200007260AD077FD04D049D006D000201AF458
:100C3000709561957F4F0895F6F7909581959F4F38
:100C40000895A1E21A2EAA1BBB1BFD010DC0AA1F0D
:100C5000BB1FEE1FFF1FA217B307E407F50720F025
:100C6000A21BB30BE40BF50B661F771F881F991FA0
:100C70001A9469F760957095809590959B01AC01E9
:100C8000BD01CF01089597FB092E05260ED057FD13
:100C900004D0D7DF0AD0001C38F450954095309529
:100CA00021953F4F4F4F5F4F0895F6F790958095F0
:100CB000709561957F4F8F4F9F4F0895AA1BBB1B67
:100CC00051E107C0AA1FBB1FA617B70710F0A61B4C
:100CD000B70B881F991F5A95A9F780959095BC016D
:100CE000CD010895EE0FFF1F0590F491E02D0994BA
:040CF000F894FFCFA6
:100CF4003A002C00010000000000C504A805C0054E
:00000001FF
