:100000000C9462000C948A000C948A000C948A0070
:100010000C948A000C948A000C948A000C948A0038
:100020000C948A000C948A000C948A000C948A0028
:100030000C948A000C948A000C948A000C948A0018
:100040000C9470020C948A000C9419040C948A008D
:100050000C948A000C948A000C948A000C948A00F8
:100060000C948A000C948A000000000024002700F1
:100070002A0000000000250028002B0000000000DE
:1000800023002600290004040404040404040202DA
:100090000202020203030303030301020408102007
:1000A0004080010204081020010204081020000012
:1000B0000007000201000003040600000000000029
:1000C00000009E0511241FBECFEFD8E0DEBFCDBFDC
:1000D00011E0A0E0B1E0E4E5F2E102C005900D928C
:1000E000A636B107D9F712E0A6E6B1E001C01D922D
:1000F000A630B107E1F710E0C4ECD0E004C02297CD
:10010000FE010E942409C23CD107C9F70E9469027E
:100110000C9428090C94000083EF91E040E855E22C
:1001200060E070E00E94560408950F931F93082F1B
:10013000162F61E00E941C03812F61E00E941C03C6
:10014000802F61E00E943C03812F61E00E943C030C
:10015000812F60E00E943C031F910F9108951F932F
:10016000CF93DF93182F60E00E941C03C0E0D0E023
:100170006AE070E080E090E00E94B802812F0E9467
:100180008903009761F02196C436D10589F701975C
:1001900031F483EF91E060E071E00E942E06DF9180
:1001A000CF911F910895CF92DF92EF92FF920F931C
:1001B0001F93CF93DF93C82ED62E7A01C0E0D0E0F4
:1001C00000E010E017C08D2D61E00E943C036AE062
:1001D00070E080E090E00E94B802CC0FDD1F8C2D13
:1001E0000E948903C80FD91F8D2D60E00E943C0337
:1001F0000F5F1F4F0E151F0534F3CE01DF91CF9116
:100200001F910F91FF90EF90DF90CF900895CF92C4
:10021000DF92EF92FF920F931F93F82ED92EE62EC6
:10022000C72E60E00E941C038E2D61E00E941C031B
:100230008F2D9D2D6E2D7C2D48E050E00E94D30027
:10024000182F00E08F2D61E00E941C038F2D61E0CC
:100250000E943C038F2D60E00E943C038E2D61E0E4
:100260000E943C038E2D60E00E943C038F2D60E0D5
:100270000E941C038F2D9D2D6E2D7C2D48E050E09B
:100280000E94D300082B192BC8011F910F91FF90DA
:10029000EF90DF90CF900895FF920F931F93182F48
:1002A000F62E042F862F61E00E941C03802F61E050
:1002B0000E941C038F2D61E00E943C03802F61E0AF
:1002C0000E943C038F2D60E00E943C03802F60E081
:1002D0000E943C03802F61E00E943C038F2D61E06F
:1002E0000E943C03802F60E00E943C038F2D602F12
:1002F00041E0212F0E94D803802F61E00E943C033F
:100300008F2D60E00E941C038F2D0E948903892B92
:1003100031F083EF91E06CE071E00E942E06802FB7
:1003200060E00E943C038F2D0E948903019731F009
:1003300083EF91E068E171E00E942E061F910F911A
:10034000FF900895AF92BF92CF92DF92EF92FF920B
:100350000F931F93AEC083EF91E00E946305883630
:1003600009F43FC0843709F09EC0809158019091F4
:1003700059016AE070E04BE050E00E944C018AE0D5
:1003800090E00E94AF008AE090E06BE070E00E9495
:1003900007017C018AE090E06BE070E00E9495002C
:1003A00083EF91E064E271E00E940F0683EF91E039
:1003B0006DE271E00E940F060027F7FC0095102FF8
:1003C000C801B7010E94B0072CEB34E743E95CE3B6
:1003D0000E943C0820E030E040E252E40E9418070E
:1003E00053C080915A0190915B016AE070E04BE04C
:1003F00050E00E944C018AE090E00E94AF008AE049
:1004000090E06BE070E00E9407017C018AE090E0E0
:100410006BE070E00E94950083EF91E060E371E093
:100420000E940F060027F7FC0095102FC801B701A6
:100430000E94B0077B018C0183EF91E06DE271E0D7
:100440000E940F06C801B70124E533EE45E25DE3E3
:100450000E943C0820E030E040E850E40E94180789
:100460005B016C01C801B70122EA37EE4BE356EBA2
:100470000E943C08A80197010E943C089B01AC0126
:10048000C601B5010E9419070E947D07AB01BC019E
:10049000662757FD6095762F83EF91E02AE030E0E4
:1004A0000E940D0706C083EF91E06DE371E00E94AA
:1004B0002E0683EF91E00E944F05882309F04BCF71
:1004C0001F910F91FF90EF90DF90CF90BF90AF9072
:1004D00008950E94E2020E948C000E94A201FDCFBA
:1004E0001F920F920FB60F9211242F933F938F9369
:1004F0009F93AF93BF9380916A0190916B01A091FC
:100500006C01B0916D0130916E010196A11DB11D7C
:10051000232F2D5F2D3720F02D570196A11DB11DE2
:1005200020936E0180936A0190936B01A0936C01FC
:10053000B0936D018091660190916701A09168016F
:10054000B09169010196A11DB11D80936601909340
:100550006701A0936801B0936901BF91AF919F912A
:100560008F913F912F910F900FBE0F901F90189574
:10057000EF92FF920F931F937B018C018FB7F8943A
:1005800040916A0150916B0160916C0170916D0115
:100590008FBF2FB7F89480916A0190916B01A09161
:1005A0006C01B0916D012FBF841B950BA60BB70B8F
:1005B000E816F9060A071B0760F71F910F91FF90D5
:1005C000EF900895789484B5826084BD84B581608D
:1005D00084BD85B5826085BD85B5816085BDEEE64B
:1005E000F0E0808181608083E1E8F0E080818260DA
:1005F0008083808181608083E0E8F0E08081816099
:100600008083E1EBF0E0808184608083E0EBF0E0C8
:10061000808181608083EAE7F0E08081846080836C
:100620008081826080838081816080838081806816
:1006300080831092C1000895282F30E0C9018656AA
:100640009F4FFC0194912A573F4FF90184918823D1
:1006500091F0E82FF0E0EE0FFF1FE859FF4FA59152
:10066000B491662329F48C91909589238C930895F5
:100670008C91892B8C930895482F50E0CA018255A4
:100680009F4FFC012491CA0186569F4FFC01949113
:100690004A575F4FFA0134913323D1F1222331F1CC
:1006A000233021F4809180008F7705C0243031F40D
:1006B000809180008F7D8093800018C0213019F4D4
:1006C00084B58F7704C0223021F484B58F7D84BD3A
:1006D0000DC0263021F48091B0008F7705C02730FF
:1006E00029F48091B0008F7D8093B000E32FF0E07B
:1006F000EE0FFF1FEE58FF4FA591B491662329F42A
:100700008C91909589238C9308958C91892B8C934F
:100710000895682F70E0CB0182559F4FFC01249112
:10072000CB0186569F4FFC0144916A577F4FFB01D6
:100730009491992319F420E030E038C0222331F15C
:10074000233021F4809180008F7705C0243031F46C
:10075000809180008F7D8093800018C0213019F433
:1007600084B58F7704C0223021F484B58F7D84BD99
:100770000DC0263021F48091B0008F7705C027305E
:1007800029F48091B0008F7D8093B000892F90E094
:10079000880F991F84589F4FFC01A591B4918C91AB
:1007A00020E030E0842311F021E030E0C901089519
:1007B000BF92CF92DF92EF92FF920F931F93CF934E
:1007C000DF93E82EF62EB42EC0E0D0E0022F10E02A
:1007D00087E0C82ED12CBB2041F4B8010C2E02C0FA
:1007E000759567950A94E2F70AC0B6016C1B7D0BFC
:1007F000C80102C0959587956A95E2F7BC016170C2
:100800008E2D0E943C038F2D61E00E943C038F2DB2
:1008100060E00E943C032196C830D105E1F6DF91EB
:10082000CF911F910F91FF90EF90DF90CF90BF90ED
:1008300008951F920F920FB60F9211242F933F939A
:100840004F935F936F937F938F939F93AF93BF93D8
:10085000EF93FF934091C600E091EF01F091F0011A
:10086000CF01019660E870E00E94BE089C01809173
:10087000F1019091F2012817390739F0E159FE4F43
:1008800040833093F0012093EF01FF91EF91BF91EE
:10089000AF919F918F917F916F915F914F913F9118
:1008A0002F910F900FBE0F901F9018955F926F922F
:1008B0007F928F929F92AF92BF92CF92DF92EF92F0
:1008C000FF920F931F93CF93DF93EC013A014B01FB
:1008D000413482E458078FE0680780E078070CF025
:1008E0007FC060E874E88EE190E0A40193010E946B
:1008F000F3082150304040405040CA01B90122E085
:1009000030E040E050E00E94F30859016A01A6017E
:100910009501209530954095509594E0220F331F16
:10092000441F551F9A95D1F760E074E284EF90E080
:100930000E94F308CA01B9012FEF30E040E050E017
:100940000E949F08A40193010E94F308C9018150ED
:100950009F4F181619061CF4522E5A9403C05524A2
:100960005394521A60E079E08DE390E0A401930182
:100970000E94F3082150304040405040CA01B90164
:1009800022E030E040E050E00E94F30820953095EE
:100990004095509583E0220F331F441F551F8A95C1
:1009A000D1F760E074E284EF90E00E94F308CA019E
:1009B000B9012FEF30E040E050E00E949F08A40111
:1009C00093010E94F308C90181509F4F1816190620
:1009D0001CF4822F815002C081E0821B851500F536
:1009E000E885F98581E090E00A8802C0880F991FA8
:1009F0000A94E2F7808360E079E08DE390E0A4015F
:100A000093010E94F3082150304040405040CA01F9
:100A1000B90122E030E040E050E00E94F30804C059
:100A2000E885F98510829501EC81FD813083EE81A6
:100A3000FF812083EA85FB85208141E050E0CA01E7
:100A40000E8402C0880F991F0A94E2F7282B208396
:100A5000EA85FB852081CA010F8402C0880F991F97
:100A60000A94E2F7282B2083EA85FB858081088899
:100A700002C0440F551F0A94E2F7842B8083DF9154
:100A8000CF911F910F91FF90EF90DF90CF90BF908B
:100A9000AF909F908F907F906F905F900895DC0152
:100AA0001296ED91FC911397E058FF4F819191912F
:100AB00080589F4F20813181821B930B60E870E04A
:100AC0000E94BE080895CF93DF93DC011296ED914A
:100AD000FC911397EF01CE57DF4F48815981E058C1
:100AE000FF4F80819181E058F0408417950719F4F9
:100AF0002FEF3FEF0CC0E40FF51F2081CA010196D4
:100B000060E870E00E94BE089983888330E0C901E4
:100B1000DF91CF910895FC01A085B18521898C9149
:100B200090E0022E02C0959587950A94E2F780FF27
:100B3000F6CF0484F585E02D6083089580E691E08A
:100B40009093F4018093F3018FE691E09093F60186
:100B50008093F50185EC90E09093F8018093F70184
:100B600084EC90E09093FA018093F90180EC90E09E
:100B70009093FC018093FB0181EC90E09093FE0147
:100B80008093FD0186EC90E0909300028093FF013A
:100B900084E08093010283E08093020287E08093E7
:100BA000030285E08093040281E0809305020895AA
:100BB0000F931F93CF93DF938C01EB0109C0219614
:100BC000D801ED91FC910190F081E02DC8010995CB
:100BD00068816623A1F7DF91CF911F910F9108954E
:100BE000EF92FF920F931F93CF93DF938C017B01C2
:100BF000EA010CC0D7016D917D01D801ED91FC9106
:100C00000190F081E02DC80109952197209791F777
:100C1000DF91CF911F910F91FF90EF900895DC012C
:100C2000ED91FC910280F381E02D099508950F93D9
:100C30001F938C01DC01ED91FC910190F081E02D7E
:100C40006DE00995D801ED91FC910190F081E02DC6
:100C5000C8016AE009951F910F9108950F931F93A2
:100C60008C010E940F06C8010E9417061F910F9168
:100C700008952F923F924F925F926F927F928F9240
:100C80009F92AF92BF92CF92DF92EF92FF920F931B
:100C90001F93DF93CF93CDB7DEB7A0970FB6F8942D
:100CA000DEBF0FBECDBF1C016A017B01411551059E
:100CB0006105710549F4DC01ED91FC910190F08131
:100CC000E02D60E3099554C0882499245401422EF4
:100CD00055246624772401E010E00C0F1D1F080D39
:100CE000191DC701B601A30192010E94D108F801A4
:100CF00060830894811C911CA11CB11CC701B60122
:100D0000A30192010E94D108C901DA016C017D01A1
:100D1000C114D104E104F104F1F681E0E82EF12CD4
:100D2000EC0EFD1EE80CF91C3E010894611C711CC0
:100D3000D501C4010197A109B1096C01C818D908EE
:100D400014C0F601EE0DFF1D60816A3010F4605D85
:100D500001C0695CD101ED91FC910190F081E02D21
:100D6000C10109950894E108F1086E147F0449F760
:100D7000A0960FB6F894DEBF0FBECDBFCF91DF9126
:100D80001F910F91FF90EF90DF90CF90BF90AF90A9
:100D90009F908F907F906F905F904F903F902F909B
:100DA0000895EF92FF920F931F93CF93DF93EC017F
:100DB0007A018B0177FF0FC0E881F9810190F08102
:100DC000E02D6DE2099510950095F094E094E11CFA
:100DD000F11C011D111DCE01B801A7012AE00E94DE
:100DE0003906DF91CF911F910F91FF90EF900895F9
:100DF000DC012115310541F4ED91FC910190F08168
:100E0000E02D642F099508952A30310519F40E94C8
:100E1000D10608950E94390608950F931F938C01FF
:100E20000E94F806C8010E9417061F910F910895AD
:100E30005058BB27AA270ED0E5C0D6D030F0DBD063
:100E400020F031F49F3F11F41EF4CBC00EF4E09576
:100E5000E7FBC1C0E92FE7D080F3BA176207730739
:100E60008407950718F071F49EF5FFC00EF4E09525
:100E70000B2EBA2FA02D0B01B90190010C01CA0154
:100E8000A0011124FF27591B99F0593F50F4503EFF
:100E900068F11A16F040A22F232F342F4427585FF1
:100EA000F3CF469537952795A795F0405395C9F709
:100EB0007EF41F16BA0B620B730B840BBAF09150C1
:100EC000A1F0FF0FBB1F661F771F881FC2F70EC060
:100ED000BA0F621F731F841F48F487957795679533
:100EE000B795F7959E3F08F0B3CF9395880F08F01C
:100EF0009927EE0F97958795089504D06894B111BE
:100F0000B5C0089598D088F09F5790F0B92F9927D1
:100F1000B751A0F0D1F0660F771F881F991F1AF004
:100F2000BA95C9F712C0B13081F09FD0B1E00895F1
:100F30009CC0672F782F8827B85F39F0B93FCCF372
:100F4000869577956795B395D9F73EF490958095FA
:100F5000709561957F4F8F4F9F4F0895E89409C01A
:100F600097FB3EF490958095709561957F4F8F4FDC
:100F70009F4F9923A9F0F92F96E9BB279395F695F2
:100F8000879577956795B795F111F8CFFAF4BB0F70
:100F900011F460FF1BC06F5F7F4F8F4F9F4F16C0D4
:100FA000882311F096E911C0772321F09EE8872F5E
:100FB000762F05C0662371F096E8862F70E060E01A
:100FC0002AF09A95660F771F881FDAF7880F969593
:100FD000879597F9089597F99F6780E870E060E03A
:100FE00008959FEF80EC089500240A9416161706C2
:100FF00018060906089500240A941216130614060A
:1010000005060895092E0394000C11F4882352F06C
:10101000BB0F40F4BF2B11F460FF04C06F5F7F4F24
:101020008F4F9F4F089557FD9058440F551F59F00B
:101030005F3F71F04795880F97FB991F61F09F3FC5
:1010400079F087950895121613061406551FF2CFEE
:101050004695F1DF08C0161617061806991FF1CF3E
:1010600086957105610508940895E894BB27662765
:101070007727CB0197F908950BD0C4CFB5DF28F0BF
:10108000BADF18F0952309F0A6CFABCF1124EECF2D
:10109000CADFA0F3959FD1F3950F50E0551F629FD3
:1010A000F001729FBB27F00DB11D639FAA27F00DC1
:1010B000B11DAA1F649F6627B00DA11D661F829FE8
:1010C0002227B00DA11D621F739FB00DA11D621FCD
:1010D000839FA00D611D221F749F3327A00D611DEA
:1010E000231F849F600D211D822F762F6A2F1124CC
:1010F0009F5750408AF0E1F088234AF0EE0FFF1F1F
:10110000BB1F661F771F881F91505040A9F79E3F55
:10111000510570F060CFAACF5F3FECF3983EDCF34F
:10112000869577956795B795F795E7959F5FC1F792
:10113000FE2B880F911D9695879597F90895629FCC
:10114000D001739FF001829FE00DF11D649FE00DBF
:10115000F11D929FF00D839FF00D749FF00D659F20
:10116000F00D9927729FB00DE11DF91F639FB00D1F
:10117000E11DF91FBD01CF011124089597FB092E30
:1011800007260AD077FD04D049D006D000201AF4F3
:10119000709561957F4F0895F6F7909581959F4FD3
:1011A0000895A1E21A2EAA1BBB1BFD010DC0AA1FA8
:1011B000BB1FEE1FFF1FA217B307E407F50720F0C0
:1011C000A21BB30BE40BF50B661F771F881F991F3B
:1011D0001A9469F760957095809590959B01AC0184
:1011E000BD01CF01089597FB092E05260ED057FDAE
:1011F00004D0D7DF0AD0001C38F4509540953095C4
:1012000021953F4F4F4F5F4F0895F6F7909580958A
:10121000709561957F4F8F4F9F4F0895AA1BBB1B01
:1012200051E107C0AA1FBB1FA617B70710F0A61BE6
:10123000B70B881F991F5A95A9F780959095BC0107
:10124000CD010895EE0FFF1F0590F491E02D099454
:04125000F894FFCF40
:1012540041636B204572726F7220320041636B20D0
:101264004572726F7220300041636B204572726F59
:101274007220310054656D702069733A002020009B
:1012840048756D69646974792069733A00596F759A
:10129400207072657373656420736F6D657468691B
:1012A4006E6720656C736500030005000000000094
:0612B4008B05D805F005D2
:00000001FF
